:100000000C9446000C9465000C9465000C946500FB
:100010000C9465000C9465000C9465000C946500CC
:100020000C9465000C9465000C9465000C946500BC
:100030000C9465000C9465000C9465000C946500AC
:100040000C9465000C9465000C9465000C9465009C
:100050000C9465000C9465000C9465000C9465008C
:100060000C9465000C9465000C9465000C9465007C
:100070000C9465000C9465000C9465000C9465006C
:100080000C9465000C9465000C94650011241FBE4F
:10009000CFEFD0E1DEBFCDBF11E0A0E0B1E0E8EDF1
:1000A000F6E000E00BBF02C007900D92A231B1074D
:1000B000D9F711E0A2E1B1E001C01D92A631B1076C
:1000C000E1F70E94EF000C946A030C9400000F9378
:1000D0001F93CF93DF93EC018B01888199810BC033
:1000E000B8010E94F001882311F081E00BC0EC817F
:1000F000FD81858196819D838C838C819D81009774
:1001000079F780E0DF91CF911F910F910895EF92E1
:10011000FF920F931F93DF93CF9300D000D00F92E5
:10012000CDB7DEB78C017B01DC018D919C91892BD1
:1001300091F487E090E00E946502FC01D8011396DB
:100140009C938E93129711969C938E931682158290
:10015000ED91FC912CC084E091E09A838983FB01AE
:1001600082818B8383818C8384818D83C801BE01CE
:100170006F5F7F4F0E946700882329F587E090E03A
:100180000E946502D80114968C93149715969C933F
:1001900015971296ED91FC9113978583968314968B
:1001A000ED91FC9115971396FC93EE931297D7015E
:1001B00012968C911297828313968C911397838356
:1001C00014968C9184830F900F900F900F900F9046
:1001D000CF91DF911F910F91FF90EF900895CF92F3
:1001E000DF92EF92FF920F931F93DF93CF93CDB7E0
:1001F000DEB7C154D0400FB6F894DEBF0FBECDBFFE
:100200008FEF8ABB87BB84BB8BBB88BB85BBCE0112
:1002100084966EEF4DEF2BEF08E10E943902CE017C
:100220008A9667EF4FEE2FED0E94390220E3C22E2F
:10023000D12CCC0EDD1EC6016EEF4DEF2BEF05E18C
:100240000E943902CE01C69667EF4FEE2FED0E9455
:100250003902CE0101966EEF4DEF2BE10E94AB010A
:10026000CE0106966FEB4FE728E10E94AB01CE016D
:100270000B966FEB4FE725E10E94AB01C6010E9490
:10028000CB01C6010E94B401C6010E941202C60140
:100290000E9429021DAE1CAE1FAE1EAE94E0E92ED8
:1002A00091E0F92EF98AE88A8EA18A8B8FA18B8B37
:1002B00088A58C8B8E01045C1F4FC801BE01605F56
:1002C0007F4F0E948700FE8AED8A8CA58F8B8DA5BB
:1002D000888F8EA5898FC801BE016B5E7F4F0E94FB
:1002E0006700882319F0C6010E94B40184E0E82E5B
:1002F00081E0F82EFB8EEA8E8CA58C8F8DA58D8FDC
:100300008EA58E8F8E01045C1F4FC801BE01665EF4
:100310007F4F0E948700F8A2EF8E8CA589A38DA540
:100320008AA38EA58BA3C801BE01615E7F4F0E9488
:100330006700882321F0CE01C0960E94CB0181B1D5
:1003400081B9FDCFFC0184E091E091838083228319
:10035000638344830895FC0184E091E0918380836A
:1003600022836383448308950F931F938C01DC01E0
:10037000ED91FC910190F081E02D0995D801129644
:10038000EC911297F0E080A113969C91892380A3B1
:100390001F910F9108950F931F938C01DC01ED9134
:1003A000FC910190F081E02D0995D8011296EC9115
:1003B0001297F0E080A114969C91892380A31F914D
:1003C0000F910895FC01A281B0E090962C91909736
:1003D0008381948189238095282B90962C9308956E
:1003E000FC01DB01938113968C911397981771F49C
:1003F000948114968C911497981741F420E092817F
:1004000012968C91981719F421E001C020E0822FF8
:100410000895FC0183810895FC0184810895FC0105
:10042000828108950F931F938C01DC01ED91FC9163
:100430000190F081E02D0995D8011296EC91129768
:10044000F0E080A115969C91892380A31F910F91C4
:100450000895FC01A281B0E090962C91909785813F
:1004600094818923938189238095822B90968C9304
:100470000895EF92FF920F931F937C01142F422F48
:10048000202F0E94A2018AE091E0F70191838083EE
:1004900015831F910F91FF90EF900895EF92FF92B7
:1004A0000F931F937C01142F422F202F0E94A20133
:1004B0008AE091E0F7019183808315831F910F916A
:1004C000FF90EF90089508950895CF93DF93BC01B6
:1004D0008230910510F462E070E0A0911401B091B7
:1004E0001501ED01E0E0F0E040E050E021C088813E
:1004F00099818617970769F48A819B81309719F053
:100500009383828304C09093150180931401FE01AC
:1005100034C06817790738F44115510519F084176C
:10052000950708F4AC01FE018A819B819C01E901D9
:100530002097E9F641155105A9F1CA01861B970BD1
:10054000049708F4BA01E0E0F0E02AC08D919C9194
:10055000119784179507F9F46417750781F41296BB
:100560008D919C911397309719F09383828304C0E7
:100570009093150180931401FD0132964FC0CA017A
:10058000861B970BFD01E80FF91F6193719302978A
:100590008D939C9343C0FD01828193819C01D9017D
:1005A0001097A1F68091120190911301892B41F4CB
:1005B00080910E0190910F0190931301809312018D
:1005C00040911001509111014115510541F44DB771
:1005D0005EB780910C0190910D01481B590B209141
:1005E00012013091130124173507B0F4CA01821BA0
:1005F000930B8617970780F0AB014E5F5F4F841710
:10060000950750F0420F531F50931301409312016E
:10061000F9016193719302C0E0E0F0E0CF01DF9156
:10062000CF910895CF93DF93009709F450C0EC0168
:1006300022971B821A82A0911401B0911501109784
:1006400009F140E050E0AC17BD0708F1BB83AA8375
:10065000FE0121913191E20FF31FAE17BF0779F42C
:100660008D919C911197280F391F2E5F3F4F398331
:10067000288312968D919C9113979B838A834115B1
:10068000510571F4D0931501C093140120C0129646
:100690008D919C911397AD01009711F0DC01D3CFA0
:1006A000FA01D383C28321913191E20FF31FCE1758
:1006B000DF0769F488819981280F391F2E5F3F4F2A
:1006C000FA01318320838A819B8193838283DF9126
:0806D000CF910895F894FFCFCB
:1006D80000000000E20100000000290220001601CD
:0206E800000010
:00000001FF
