:100000000C9446000C945D000C945D000C945D0013
:100010000C945D000C945D000C945D000C945D00EC
:100020000C945D000C945D000C945D000C945D00DC
:100030000C945D000C945D000C945D000C945D00CC
:100040000C945D000C945D000C945D000C945D00BC
:100050000C945D000C945D000C945D000C945D00AC
:100060000C945D000C945D000C945D000C945D009C
:100070000C945D000C945D000C945D000C945D008C
:100080000C945D000C945D000C945D0011241FBE67
:10009000CFEFD0E1DEBFCDBF11E0A0E0B1E0E4EBF7
:1000A000F2E000E00BBF02C007900D92AC30B10748
:1000B000D9F70E945F000C9458010C940000EF9255
:1000C000FF920F93DF93CF93CDB7DEB7A7970FB60D
:1000D000F894DEBF0FBECDBF8FEF8ABB87BB84BB5A
:1000E0008BBB88BB85BBCE0140966EEF4DEF2BEFEF
:1000F00008E10E942E01CE01469667EF4FEE2FEDEC
:100100000E942E018CE1E82EF12CEC0EFD1EC701A1
:100110006EEF4DEF2BEF05E10E942E01CE0182968E
:1001200067EF4FEE2FED0E942E01CE0101966EEF8C
:100130004DEF2BE10E94C200CE0106966FEB4FE718
:1001400028E10E94C200CE010B966FEB4FE725E13C
:100150000E94C200C7010E94E200C7010E94CB00BA
:10016000C7010E940701C7010E941E0181B181B928
:10017000FDCFFC0184E091E091838083228363833F
:1001800044830895FC0184E091E09183808322837D
:100190006383448308950F931F938C01DC01ED91D9
:1001A000FC910190F081E02D0995D8011296EC9117
:1001B0001297F0E080A113969C91892380A31F9150
:1001C0000F9108950F931F938C01DC01ED91FC9129
:1001D0000190F081E02D0995D8011296EC911297CB
:1001E000F0E080A114969C91892380A31F910F9128
:1001F0000895FC01A281B0E090962C9190978381A4
:10020000948189238095282B90962C9308950F93A1
:100210001F938C01DC01ED91FC910190F081E02DA8
:100220000995D8011296EC911297F0E080A11596ED
:100230009C91892380A31F910F910895FC01A281B5
:10024000B0E090962C919097858194818923938139
:1002500089238095822B90968C930895EF92FF923C
:100260000F931F937C01142F422F202F0E94B9005F
:100270008AE091E0F7019183808315831F910F91AC
:10028000FF90EF900895EF92FF920F931F937C01E0
:10029000142F422F202F0E94B9008AE091E0F7012D
:1002A0009183808315831F910F91FF90EF900895A4
:0402B000F894FFCFF0
:0C02B40000000000F900000000001E0126
:00000001FF
